:1000000058EF06F00C204249454E56454E49444FA4
:1000100020000C20202020204D414E5A414E4120EE
:1000200020202020202000000C2020202020504CC8
:100030004154414E4F202020202020000C20496EAA
:10004000696369616E646F2E2E2E00000C202043C0
:100050006F6C6F7175650A20206C61206672757413
:100060006100EA6A4E0EE96EEF500EE0010E016E7D
:10007000006A002EFED7012EFBD74A0E006E002E1E
:10008000FED700D0EF2EF2D7120055B002D08A98DA
:1000900001D08A88939855B202D08A9A01D08A8A70
:1000A000939A55B402D08A9C01D08A8C939C55B601
:1000B00002D08A9E01D08A8E939E00008A809390FF
:1000C00000D08A9093901200566A9388000E81B8EF
:1000D000010E5612938A000E81BA010E006ED8905E
:1000E000003600505612938C000E81BC010E006E3B
:1000F00000360036FC0E001600505612938E000E8D
:1001000081BE010E006E003600360036F80E001675
:100110000050561256C001F012009388938A938CB7
:10012000938E8A84939400008A8093900000CCDFA1
:1001300001C055F08A90939000008A80939000004F
:10014000C3DF01C054F08A9093909398939A939C44
:10015000939E5538006EF00E001600505410016E3C
:10016000B8EF00F09390939293948A929392D5D79C
:1001700001C054F001BEFBD7525202E18A9201D075
:100180008A82939200008A94939400008A909390BC
:100190005338546E0F0E541654C055F076DF53503A
:1001A0000F0B546E556E71DF1200280E406E0C0E50
:1001B000416E010E426E060E436E8A9093908A92B3
:1001C00093928A9493949398939A939C939E9390EA
:1001D000939293940F0E4E6E44DF010E3F6E3F508C
:1001E000030808E3030E556E50DF050E4E6E39DF2F
:1001F0003F2AF5D7020E556E48DF050E4E6E31DFF1
:100200003F6A3F5003080DE3036A3F50400FE96E19
:10021000000E0320EA6EEFCF53F0526AA3DF3F2AAD
:10022000F0D78FEF06F0B50ECD6E91EF06F04F2CA4
:1002300001D003D0400E506E01D0506A010E4E5CCA
:10024000502650508009516E526A536E8BDF120057
:100250004D50070A07E00B0A0AE0060A10E0020AFE
:1002600014E018D0010E4E6E4F6EE1DF18D0526AC6
:10027000010E536E77DF020E4E6EF3DE10D0010ECC
:100280004E6E020E4F6ED3DF0AD0526A100E536EBE
:1002900069DF05D0010E526E4DC053F063DF1200CE
:1002A0000900F5520CE0F6CF4BF0F7CF4CF0F5CF4C
:1002B0004DF0CEDF4BC0F6FF4CC0F7FFF1D7120078
:1002C000010E4E6E4F6EB3DF040EF66E000EF76E2B
:1002D000E7DF040E3F6EFA0E4E6EC3DE3F2EFBD7F5
:1002E00093EF06F08B8094908B929492476A466AC3
:1002F000456A446A948082B0FDD7486A485017081E
:1003000016E38B829492D89044364536463647366B
:100310008B929492948082A008D0010E4426D8B08B
:10032000452AD8B4462AD8B4472A482AE7D78B8228
:100330009492800E461A8B92949244C000F045C06D
:1003400001F046C002F047C003F0F7EF01F0D8B269
:1003500003D0EA6A540EE96E006A016A026A036A0F
:10036000546A556A566A576A5350521051105010C9
:100370002CE0200E586ED8904C364D364E364F3607
:1003800054365536563657365350575C08E152505E
:10039000565C05E15150555C02E15050545C0FE34E
:1003A0005050545E5150D8A0513C555E5250D8A088
:1003B000523C565E5350D8A0533C575ED88000360E
:1003C000013602360336582ED6D754C0EFFF55C03B
:1003D000ECFF56C0ECFF57C0ECFF1200426A416AC6
:1003E000406A3F6A436A435013080BE37BD70050CF
:1003F0003F26015040220250412203504222432A0C
:10040000F2D7D89242C04FF041C04EF040C04DF0FC
:100410003FC04CF0536A526A516A140E506E97DF17
:1004200003C042F002C041F001C040F000C03FF004
:100430003FC000F040C001F041C002F042C003F0F4
:100440001200B60E006E036A026A016A3F50401045
:100450004110421002E1006A0DD0D89001BE09D0CF
:100460003F36403641364236033602360136002EDC
:10047000F4D7019E1200959C8C8C959E8C9E83AA2D
:1004800001D0FDD7CF6ACE6A83BA01D0FDD7120062
:10049000F2DF406A3F6A959C8C9C959E8C9E83BA45
:1004A000FED7CF6ACE6A83AAFED7CE503F6ECFCF9B
:1004B00040F03FC001F020EF07F0DDDF406A3F6A07
:1004C000959C8C8C959E8C8E83BAFED7CF6ACE6A13
:1004D00083AAFED7CE503F6ECFCF40F03FC001F091
:1004E00029EF07F0C8DF406A3F6A959C8C9C959E77
:1004F0008C8E83BAFED7CF6ACE6A83AAFED7CE503F
:100500003F6ECFCF40F03FC001F032EF07F0EACFAF
:1005100047F0E9CF46F04038F009426E4226E20F3C
:10052000436E320F456E40500F0B4326432645263F
:10053000E90F446E442644263F380F0B44264526D7
:1005400044364536451E45363F500F0B452642364C
:10055000070E416E0A0E44064526FDE34306442677
:10056000FDE342064326FDE341064226FDE3EA6A37
:10057000410EE96E070E4614469CE926000EEA225B
:10058000E950450803E1EA5201E1468CEF50006E64
:1005900008E146BC06D046B813D046B602D0200EBD
:1005A00003D046864698300E0026EACF40F0E9CFC9
:1005B0003FF000C04DF04CDE40C0EAFF3FC0E9FF15
:1005C000EE5046ACDDD712005050D8B471D0006E5A
:1005D0005450D8B46DD0002604E3810E002668E2A2
:1005E00004D07F0E005E64E363E051C058F05550C4
:1005F000581A518E558E53505702F4CF5AF052501C
:100600005602F4CF03F0F3CF59F05702F3505A26B5
:10061000F4505922000E032253505602F3505A262A
:10062000F4505922000E026A03220222515057024E
:10063000F3505926F4500322000E02225150560264
:10064000F3500326F4500222000E016A0122535097
:100650005502F3505926F4500322000E02220122C3
:1006600052505502F3500326F4500222000E01228C
:1006700051505502F3500226F4500122002A01BEC7
:1006800005D059360336023601360006000E59AE43
:100690000AD0032A02220122015005E1025003E19F
:1006A000035001E1002A58BE018E58AE019E04D0CD
:1006B000006A016A026A036A12004C50B6084C6E66
:1006C000036A4DC050F04D8ED8904D324E324F32AD
:1006D00003320232013200324C2EF6D750AE0BD02C
:1006E000001E011E021E031E002AD8B4012AD8B41F
:1006F000022AD8B4032AA4EF03F0E950446E435011
:10070000466E19E042C053F041C052F040C051F073
:100710003FC050F0576A566A200E556E820E546ED6
:1007200053DF03C042F002C041F001C040F000C0FE
:100730003FF0462EE7D742C04FF041C04EF040C0D8
:100740004DF03FC04CF0B9D703C042F002C041F0B9
:1007500001C040F000C03FF042AE0DD04406448AD4
:100760003F1E401E411E421E3F2AD8B4402AD8B424
:10077000412AD8B4422A3B0E4B6E9A0E4A6ECA0EDC
:10078000496E486A0A0E466E4350D8B4442AD8824D
:10079000EA6A3F0EE96E42C04FF041C04EF040C0E1
:1007A0004DF03FC04CF04BC053F04AC052F049C02E
:1007B00051F048C050F0CBDD015000520FE143280A
:1007C000465C0CE044500CE00F0B465C01E037E265
:1007D00044BE35D044BC04D0200E2DD0200E44168B
:1007E00044AA0CD0449A4350D8A444060050446E06
:1007F0002D0E4D6E2DDD4450006E446A4350465C14
:100800000AE10050446E2E0E4D6E22DD4450006E03
:10081000200E4416000E300E44AA0DD0449A4350C8
:10082000D8A444060050446E2D0E4D6E11DD445088
:10083000006E446A300E002600C04DF009DDD892EB
:100840004BC04FF04AC04EF049C04DF048C04CF08C
:10085000536A526A516A0A0E506E79DD03C04BF03A
:1008600002C04AF001C049F000C048F0462E8FD7C0
:100870009AEF07F08E0E006E51C001F050C002F0EA
:10088000036A015209E102C001F0026A080E005E2B
:10089000015202E1006A08D0D89001BE04D00236AD
:1008A00001360006F9D7019EE3EF05F0800ED8B2BD
:1008B000571A5C6A5D6A53C05BF057505B1A52501E
:1008C000D8B4DCD05A6E006E5650D8B4E0D05A5E20
:1008D000D8B481D03DE357C060F0608F58C05FF05E
:1008E00059C05EF05D6AD89060335F325E325D322F
:1008F0005A2EF8D75BAE03D05C80DDD05C905A9066
:100900005C88EA6A550EE96EE9D05C985BBE0AD055
:100910005AA013D060335F325E325D32002AD8B401
:10092000C5D00BD060BF0CD0D8905D365E365F3638
:1009300060370006D8B4BAD0F5D75C8C6BD05C9C1D
:1009400053C05BF053AE02D0608FA9D0609FA7D098
:1009500056C05AF056C000F052505A5E53C060F074
:10096000608F54C05FF055C05EF05D6AD890603310
:100970005F325E325D325A2EF8D75BAE03D05C82B6
:100980009AD05C925A905C8AEA6A590EE96EA6D0B7
:100990005C9A5BBE0AD05AA013D060335F325E32DD
:1009A0005D32002AD8B482D00BD060BF0CD0D89072
:1009B0005D365E365F3660370006D8B477D0F5D73F
:1009C0005C8E28D05C9E57C05BF057AE02D0608F23
:1009D00066D0609F64D057C060F0608F58C05FF0F1
:1009E00059C05EF05BAE04D0609F5C8464D05C94C0
:1009F0005D6A5A90EA6A550EE96E70D05BBE1CD0F3
:100A000053C05BF05AA006D060335F325E325D3275
:100A1000002A4CE05DAE0BD05E2A09E15F2A07E1B7
:100A2000602B05E160335F325E32002A3FE05CBC40
:100A300086D75CBEC7D71CD0800E601B60AF04D0C9
:100A40003AD057C05BF00AD053C05BF0605306E168
:100A50005F5204E15E5202E1006A21D060BF08D01B
:100A6000D8905D365E365F366037002EF7D71ED0E1
:100A70005BAE02D0608F13D0609F11D056C000F0E3
:100A800057C060F058C05FF059C05EF008D052C047
:100A900000F053C060F054C05FF055C05EF060C01D
:100AA00001F05FC002F05EC003F034D0006A016A5A
:100AB000026A036A2FD05D6A5E1E5F1E601F5D1EA4
:100AC0005D2A05E15E2A03E15F2A01E1602B5CB04B
:100AD00015D75CB256D75CB48AD7B3D7EF505E2631
:100AE00005E35F2A03E1602BD8B45A80ED52EF5042
:100AF0005F2603E3602BD8B45A80ED52EF50EFBE6F
:100B000001D0800A6027D8B05A805CB8FED65CBAA3
:100B10003FD774D712008E0E006E4B50005E4CC053
:100B200002F04DC001F0028E005209E0D89002524E
:100B300002E1015204E002320132002EF7D74CAE3E
:100B400005D0011E021E012AD8B4022A33EF06F096
:100B50004C5203E0010E4D6E01D04D6A4C5203E041
:100B6000010E4E6E01D04E6A4EC001F038EF06F015
:100B70003FC042F040C043F041C044F0456A466A7D
:100B80004A6A496A486A476A4550020851E3036A5B
:100B90004550420FE96E000E0320EA6EEFCF50F091
:100BA0004550040DF350036A190FE96E000E03203F
:100BB000EA6EEFCF4CF0ECCF4DF0ECCF4EF0ECCF37
:100BC0004FF0516A57D603C053F002C052F001C033
:100BD00051F000C050F04FC057F04EC056F04DC01D
:100BE00055F04CC054F0F0DCEACF51F0E9CF50F0B2
:100BF000D8924AC055F049C054F048C053F047C09D
:100C000052F003C059F002C058F001C057F000C0C4
:100C100056F04CDE51C0EAFF50C0E9FF03C04AF075
:100C200002C049F001C048F000C047F0452AACD7E7
:100C3000D8924AC055F049C054F048C053F047C05C
:100C400052F028C059F027C058F026C057F025C0F0
:100C500056F02CDE03C04EF002C04DF001C04CF047
:100C600000C04BF058D701C04BF001C04CF070D71A
:100C700001C046F0010E4E6E4F6E17EC01F0462C8F
:100C800007D0120EF66E000EF76E50EC01F006D093
:100C9000280EF66E000EF76E50EC01F0040E4B6E4F
:100CA000FA0E4E6E31EC00F04B2EFAD7A9EF07F09A
:100CB000F86AD09E076A066A100E056E840E046EEE
:100CC0000B6A0A6A096A086A0E6A470E286EDA0E0B
:100CD000276E970E266E840E256E2A6A296AC150E9
:100CE000C00B0F09C16E070EB46E800E196EB70EE1
:100CF0001A6E770E1B6EAE0E1C6E860E1D6E2D0EBE
:100D00001E6EFC0E1F6E6C0E206E860E216E900EF7
:100D1000226EC40E236EA50E246ED5EF00F013EFE5
:100D200001F060EF01F03C0EF66E000EF76E50EC35
:100D300001F02E6A2D6A2C6A2B6A326A316A306A97
:100D40002F6A366A356A346A336AEEEC01F003C002
:100D500032F002C031F001C030F000C02FF0010EBF
:100D60004E6E4F6E17EC01F04C0EF66E000EF76EE5
:100D700050EC01F0EEEC01F003C02EF002C02DF0BB
:100D800001C02CF000C02BF02E50325C32E30BE19E
:100D90002D50315C2EE307E12C50305C2AE303E157
:100DA0002B502F5C26E32B502F5C006E2C503058BC
:100DB000016E2D503158026E2E503258036E426E25
:100DC00002C041F001C040F000C03FF021EC02F051
:100DD00003C03AF002C039F001C038F000C037F06B
:100DE0003AC036F039C035F038C034F037C033F08F
:100DF00025D02F502B5C006E30502C58016E315096
:100E00002D58026E32502E58036E426E02C041F0D1
:100E100001C040F000C03FF021EC02F003C03EF002
:100E200002C03DF001C03CF000C03BF03EC036F0D7
:100E30003DC035F03CC034F03BC033F048EF02F029
:100E4000146A01C013F0FA0E4E6E31EC00F05DEF43
:100E500002F0166A01C015F0FA0E4E6E31EC00F089
:100E600072EF02F0186A01C017F0FA0E4E6E31EC04
:100E700000F0010E4E6E4F6E17EC01F00C0E4D6E31
:100E800028EC01F0520E4D6E28EC01F03A0E4D6E3A
:100E900028EC01F0100EE96E14C040F013C03FF0D2
:100EA00087EC02F0010E4E6E020E4F6E17EC01F051
:100EB000470E4D6E28EC01F03A0E4D6E28EC01F015
:100EC000100EE96E16C040F015C03FF087EC02F03E
:100ED000080E4E6E010E4F6E17EC01F0420E4D6E75
:100EE00028EC01F03A0E4D6E28EC01F0100EE96E80
:100EF00018C040F017C03FF087EC02F0080E4E6EAD
:100F0000020E4F6E17EC01F0570E4D6E28EC01F0FB
:100F10003A0E4D6E28EC01F0890EE96E36C042F0B3
:100F200035C041F034C040F033C03FF0020E436E94
:100F30007DEF03F0140E3F6EFA0E4E6E31EC00F0B2
:100F40003F2EFAD713C03FF015C040F017C041F054
:100F50000FD6140E3F6EFA0E4E6E31EC00F03F2E9F
:060F6000FAD7FDD60300E4
:020000040030CA
:0E00000000C0261E0087A1000FC00FE00F40B9
:00000001FF
;PIC18F4550
;CRC=98A1  CREATED="18-nov.-21 13:30"
