:1000000002308A00172A00000A108A100A1182079B
:1000100028340C34013406340C003130840083134E
:100020000008031920280630F800F701F70B1628FE
:10003000F80B15287B30F700F70B1C28800B1328D2
:1000400008003818252806122628061683160612D8
:100050008312B8182D2886122E288616831686122B
:100060008312381935280613362806178316061307
:100070008312B8193D2886133E28861783168613E7
:1000800000008611831286150230F700F70B462810
:1000900049280000831686118312861108008316F2
:1000A0000611831206116330F700F70B5528582804
:1000B000B5080319602883160611831206156428F3
:1000C000831606118312061100008316861183120F
:1000D0008611360EB7000F30B7053708B80021205B
:1000E00036080F39B700B800212008008316061122
:1000F0008312061183168611831286110F30B10008
:100100000D20A7012708023C031C8E280330B800ED
:1001100021200530B1000D20A70A82280230B80046
:100120002120A7012708033C031CA228270804203C
:10013000A800B5012808B6004F200530B1000D20F9
:10014000A70A92288A110A122C2AB53090008A1127
:100150000A122D2AA801A701831608138312081377
:100160008316881383128813881AB4288E018F018E
:100170008E01881EB9280F08FA000E08F7000F0834
:100180007A02031DBB287708A7007A08A800270871
:10019000F8002808F900CF282008B1000D208A11A6
:1001A0000A123A2AA801A701831608138312081716
:1001B0008316881383128817881ADC288E018F0112
:1001C0008E01881EE1280F08FA000E08F7000F08BC
:1001D0007A02031DE3287708A7007A08A8002708F9
:1001E000F8002808F900F7282008B1000D208A112E
:1001F0000A123F2AA801A7018316081383120813C5
:100200008316881383128817881A04298E018F0198
:100210008E01881E09290F08FA000E08F7000F0842
:100220007A02031D0B297708A7007A08A80027087F
:10023000F8002808F9001F292008B1000D208A11B4
:100240000A12442A320B252928294030B3002929D3
:10025000B30101303102B30733088038B400B5016F
:100260003408B6004F20080030080C3A03193F2923
:10027000063A03194729023A03194D295229B501B3
:100280000130B6004F200230B1000D205729013057
:10029000B1000230B20022215729B5011030B6005A
:1002A0004F2057290130B5003008B6004F20080014
:1002B0000C3003178D0000308F0003130B08A700CC
:1002C0008B13831603178C170C1400000000831285
:1002D0000313A71B8B1703170C087F390319B029C9
:1002E0000313A70003170D080313A80003170F0833
:1002F0000313A9002708B0003421280803178D0034
:100300000313290803178F0003130B08AA008B138C
:10031000831603178C170C140000000083120313BC
:10032000AA1B8B1703170C0D0E0D7F390319B0296B
:100330000313A70003170D080313A80003170F08E2
:100340000313A9002708B0003421280803178D00E3
:100350000313290803178F008D0A03198F0A5D29DB
:1003600003138A110A12B42AAF010408AE002F1039
:10037000831B2F14280EF038AA00AA07E23EAB0018
:10038000323EAD0028080F39AB07AB07AD07E93E99
:10039000AC00AC07AC07270E0F39AC07AD07AC0DAE
:1003A000AD0DAD09AD0D27080F39AD07AA0D07300A
:1003B000A9000A30AD07AC03031CDA29AC07AB0374
:1003C000031CDE29AB07AA03031CE229AA07A90321
:1003D000031CE62929308400831307302E052E13D1
:1003E00084072D30040203192E170008F700031D9F
:1003F000012A2E1B012A2E1A132AAE19012A203097
:10040000042AAE152E123030F707A8010408A70001
:100410002810831B28147708B00034212708840093
:10042000831328188317840A2E1FF1290800030854
:100430001F3983000A30A000A201A101A401A30179
:10044000A601A50183161F149F141F159F110730C5
:100450009C00831383127628A52883160810831224
:1004600008108316881083128810831608118312CF
:100470000811AA287908A2007808A100D2287908D2
:10048000A4007808A300FA287908A6007808A50037
:1004900083160810831208108316881083128810A0
:1004A0008316081183120811A608031D5B2A25086C
:1004B000143C0318742AA608031D742A2508453C19
:1004C000031C742AA408031D692A23083A3C031854
:1004D000742AA408031D742A2308573C031C742A99
:1004E0008316081183120815A608031D7B2A250808
:1004F000413C0318A12AA608031DA12A2508613C36
:10050000031CA12AA408031D892A23085A3C0318A6
:10051000A12AA408031DA12A2308773C031CA12AB1
:10052000A108031D962AA2080319A12AA208031DE7
:10053000A12A21083B3C031CA12A83160810831220
:100540000814A408031DA82A2308233C0318B32A6F
:10055000A408031DB32A2308363C031CB32A8316C0
:1005600088108312881458290130B100B20022216A
:100570005230B00034213A30B00034212030B00085
:100580003421103084002208A8002108A700B421DB
:100590000130B1000230B20022214730B0003421D6
:1005A0003A30B00034212030B000342110308400C3
:1005B0002408A8002308A700B4210930B1000130A5
:1005C000B20022214230B00034213A30B000342150
:1005D0002030B0003421103084002608A8002508FF
:0E05E000A700B421FA30B1000D20392A6300C3
:02400E007A3FF7
:00000001FF
;PIC16F877A
;CRC=C1FE  CREATED="02-jul-20 14:13"
