:1000000008308A00002800000C10CD306E3D6137AA
:1000100061000C10CD306E3261396937610071308A
:10002000840083130008031923280130F800F70126
:10003000F70B1828F80B17284A30F700F70B1E2883
:100040002128800B152808007C182828061229284A
:10005000061683160612FC183128831286123328DE
:10006000831683128616831686127C193B28831208
:1000700006133D2883168312061783160613FC19F0
:100080004528831286134728831683128617831602
:100090008613000083120614831606104F2883125D
:1000A00006108316061083120800FD01831606163B
:1000B00000308312061A0130FD04831686160030C4
:1000C0008312861A0130F7000310F70D7708FD043C
:1000D0008316061700308312061B0130F700F70D58
:1000E000F70DFC30F7057708FD04831686170030FE
:1000F0008312861B0130F700F70DF70DF70DF8306E
:10010000F7057708FD047D08F8000800831606103F
:100110008610061183128610831686100616861620
:100120000617861783120615831606110000831220
:100130000614831606100000831255207808FC0070
:10014000061083160610000083120614831606108C
:100150000000831255207808FB0006108316061055
:1001600006128612061386137C0EF700F030F70590
:1001700077087B04F8007808FB00FB1B8E28F50845
:10018000031DC62883128610C8288316831286147E
:1001900083168610000083120611831606110000D4
:1001A0008312061083160610760EFB000F30FB0537
:1001B0007B08FC008312242076080F39FB00FC002A
:1001C000242008002830E4000C30E5000130E6006F
:1001D0000630E70006108316061083128610831679
:1001E0008610831206118316061106128612061354
:1001F00086130610861006110F30F10083120F20AF
:100200000130E3006308033C031C0E290330FC00AB
:1002100024200530F1000F20E30A02290230FC00FF
:1002200024200530F1000F20E3016308033C031C88
:10023000252964306307840083130008E800F50172
:100240006808F6008620E30A15298A150A125C2838
:10025000353090008A150A125F2883183229A030A1
:1002600084008313F701F801F901FA018316A00154
:10027000A101A201A3017E087D047C047B04031973
:1002800071292030A4000310F00DF10DF20DF30DD3
:10029000A00DA10DA20DA30D7E082302031D5A2956
:1002A0007D082202031D5A297C082102031D5A29B8
:1002B0007B082002031C6B297B08A0027C08031C1E
:1002C0007C0FA1027D08031C7D0FA2027E08031C87
:1002D0007E0FA3020314F70DF80DF90DFA0DA40B10
:1002E000432920088000840A21088000840A22080B
:1002F0008000840A2308800083120800E601E501DB
:10030000E401E301E7016708133C031CEB29071430
:100310004A104A088316870083128710CA104A08B9
:10032000831687008312EB01EA01E901E8014A1410
:100330004A0883168700831207189729EC016C0876
:10034000173C031CC5298714CA104A088316870066
:1003500003108312E80DE90DEA0DEB0D8710CA10AA
:100360004A088316870083124A144A0883168700B6
:100370008312071CC3290130E8070318E90A03198F
:10038000EA0A0319EB0AEC0A9F298714CA104A08E3
:100390008316870080308312EA068710CA104A0845
:1003A0008316870083126808F7006908F8006A0856
:1003B000F9006B08FA007708E30778080318780F4C
:1003C000E40779080318790FE5077A0803187A0F0C
:1003D000E607E70A832983106608F3006508F20040
:1003E0006408F1006308F000FE01FD01FC01143017
:1003F000FB002D217A08E6007908E5007808E40082
:100400007708E3006308F7006408F8006508F9005E
:100410006608FA000800B630F700FA01F901F801A1
:100420006308640465046604031D182AF701252A7D
:100430000310F81B242AE30DE40DE50DE60DFA0D7B
:10044000F90DF80DF70B182AF813080063080319C3
:10045000EB2AEF0067080319EB2AEF02031C352A89
:100460007F30EF070318EB2A3B2A8130EF02031C91
:10047000EB2A0319EB2A6F08F700F801F901FA01DA
:10048000EE016408ED00ED176508EC006608EB006E
:100490001930EF006A08EB0203185E2A0130EC0203
:1004A00003185E2AED0203185E2AEE0203185E2A84
:1004B000EE0AED0AEC0A6A08EB07902A6908EC02DA
:1004C0000318792A0130ED020318792AEE02031885
:1004D000792AEE0AED0A6908EC076A08EB07031CA3
:1004E000902AEC0A031D902AED0A031D902AEE0AB9
:1004F000902A68088038ED0203188F2A0130EE0236
:1005000003188F2AEE0A68088038ED076908EC079F
:10051000031C6D2AED0A031D6D2AEE0A6D2A7A145A
:10052000EF0B932A9E2A0310EB0DEC0DED0DEE0D53
:100530000310FA0DF90DF80DF00D4A2A701CA62AC9
:100540000310F80CF90CFA0CF00CA92AF7030319A4
:10055000EB2AF01BD22A0310EB0DEC0DED0DEE0D86
:100560006A08EB020318BE2A0130EC020318BE2A07
:10057000ED020318BE2AEE02031CE12A6908EC0210
:100580000318C92A0130ED020318C92AEE02031C20
:10059000E12A68088038ED020318D22A0130EE0201
:1005A000031CE12AFA0A031DE12AF90A031DE12AC4
:1005B000F80A031DE12AF70A0319EB2AF80CF90CD3
:1005C000FA0C6408EF006808EF06EF1FE92AF81735
:1005D000EF2AF813EF2AF701F801F901FA018A1559
:1005E0000A12072983160813831208178316881323
:1005F00083128813881AFA2A8E018F018E01881EB1
:10060000FF2A0800F222E401E30183160813831293
:1006100008138316881383128813881A0D2B8E01F2
:100620008F018E01881E122B0F08FA000E08F700AA
:100630000F087A02031D142B7708E3007A08E40000
:100640006308F8006408F9008A150A121229F222D8
:10065000E401E30183160813831208178316881335
:1006600083128817881A322B8E018F018E01881E03
:10067000372B0F08FA000E08F7000F087A02031D47
:10068000392B7708E3007A08E4006308F80064086F
:10069000F9008A150A121929F222E401E3018316EE
:1006A0000813831208138316881383128817881A75
:1006B000572B8E018F018E01881E5C2B0F08FA00CC
:1006C0000E08F7000F087A02031D5E2B7708E3007F
:1006D0007A08E4006308F8006408F9008A150A1231
:1006E00020298E30F7006308F7026408F9006508D6
:1006F000F800F917F7080319882B0310F908031DF0
:10070000842BF8080319882BF90CF80CF70B7D2BB8
:10071000E41F8F2BF809F909F80A0319F90A8A1559
:100720000A123529720B952B982B4030F300992B28
:10073000F30101307102F30773088038F400F5010A
:100740007408F600862008007008073A0319B22BD7
:100750000B3A0319B72B063A0319BF2B023A0319B8
:10076000C52BCA2B0130F100F2009223CF2BF501EB
:100770000130F60086200230F1000F20CF2B01302F
:10078000F1000230F2009223CF2BF5011030F60079
:100790008620CF2B0130F5007008F6008620080077
:1007A000EB010408EA006B10831B6B14640EF03835
:1007B000E600E607E23EE700323EE90064080F3952
:1007C000E707E707E907E93EE800E807E807630EFF
:1007D0000F39E807E907E80DE90DE909E90D6308B4
:1007E0000F39E907E60D0730E5000A30E907E803AD
:1007F000031CF62BE807E703031CFA2BE707E603C5
:10080000031CFE2BE607E503031C022C6530840065
:10081000831307306A056A138407693004020319D9
:100820006A170008F700031D1D2C6A1B1D2C6A1A8D
:100830002F2CEA191D2C2030202CEA156A1230309A
:10084000F707E4010408E3006410831B64147708CD
:10085000F000A42363088400831364188317840AB8
:100860006A1F0D2C080070080319B22C8316A00013
:100870007B08031D3D2C8312B22CA00703184B2CC0
:100880007F30A0020318462C8312B22C031D4A2C81
:100890008312B22C512C8130A007031C512C8312DF
:1008A000B22C2008F700F801F901FA017108A40040
:1008B000A4177208A3007308A2001830A000A101B9
:1008C000221C7A2C7E08FA07031C6C2CF90A031DE3
:1008D0006C2CF80A0319A1177D08F907031C732C67
:1008E000F80A0319A1177C08F200F2177208F8073A
:1008F0000318A117A10DF80CF90CFA0CA40CA30C09
:10090000A20C0310A00B5F2C0130F707031C8A2CEC
:100910008312B22CF81B942CA40DFA0DF90DF80DCE
:10092000F70B942C8312B22CA41FA72CFA0A031DD8
:10093000A72CF90A031DA72CF80A031DA72CF80CF5
:10094000F90CFA0CF70A031DA72C8312B22C7108BC
:10095000A1007C08A106A11FAF2CF817B72CF81333
:10096000B72C8312F701F801F901FA0183168312FB
:1009700008000408E8006708EA000319D82C660894
:10098000F3006508F2006408F1006308F000FE015E
:10099000FD012030FC008230FB0033247A08E600A1
:1009A0007908E5007808E4007708E300EA0BBF2C3B
:1009B0006608F3006508F2006408F1006308F000BF
:1009C0007008B63CF000FA017108F400F11703104A
:1009D000F10CF20CF30CFA0CF90CF80CF70CF00B10
:1009E000E72CF41FFE2CF709F809F909FA09F70AB0
:1009F0000319F80A0319F90A0319FA0A7A08E60032
:100A00007908E5007808E4007708E300E61F152D73
:100A1000E803E816E309E409E509E609E30A03192E
:100A2000E40A0319E50A0319E60A3B30EF009A309D
:100A3000EE00CA30ED00EC010A30EA006708031945
:100A4000E80A83146330840083136608F3006508A2
:100A5000F2006408F1006308F0006F08FE006E0801
:100A6000FD006D08FC006C08FB002D217808F708DC
:100A7000031D4D2D670A6A0203194D2D68080319DD
:100A80004F2D0F396A020319472D03187F2DE81BDC
:100A90007F2D681B4F2D20307B2D2030E805E81E70
:100AA0005D2DE8126708031DE8037708E8002D3084
:100AB000F000A4236808F700E80167086A02031D34
:100AC0006B2D7708E8002E30F000A4236808F700AB
:100AD0002030E80500303030E81E7B2DE812670832
:100AE000031DE8037708E8002D30F000A423680810
:100AF000F700E8013030F7077708F000A4238310EF
:100B00006F08F3006E08F2006D08F1006C08F00049
:100B1000FE01FD01FC010A30FB002D217A08EF00E7
:100B20007908EE007808ED007708EC00EA0B212D3B
:100B30008A150A12B8298E30F7006908F80068088B
:100B4000F900FA01F808031DAF2D7908F800F90142
:100B50000830F702F808031DAF2DF701B72D031079
:100B6000F81BB62DF90DF80DF703AF2DF8138A1504
:100B70000A12EB2980308318EF068316A201A30125
:100B800083126B088316A10083126F088316A106D7
:100B900083126A080319CC2E8316A000F700831273
:100BA0006E080319D72E8316A0020319682E031CA2
:100BB0001A2E83126F088316A600A6177008A500C8
:100BC0007108A400A3010310A60CA50CA40CA30C8F
:100BD000A00BE22DA11FEF2D2214F02E22102010C9
:100BE00022166D3084008313052F2212A11B022EC2
:100BF000201C0D2EA60CA50CA40CA30CF70A03199F
:100C0000EB2E0D2EA61B102E0310A30DA40DA50D6B
:100C1000A60DF7030319EB2E022E22178C2E22139A
:100C200083126B088316A100A11F182EA617E42EAD
:100C3000A613E42E83126E088316A000F700831219
:100C40006A088316A00283126B088316A600A617F3
:100C500083126C088316A50083126D088316A40006
:100C6000A3010310A60CA50CA40CA30CA00B302E02
:100C7000A11F3D2EA214F02EA2102010A21671303A
:100C800084008313052FA212A11B502E201C5B2E63
:100C9000A60CA50CA40CA30CF70A0319EB2E5B2ED3
:100CA000A61B5E2E0310A30DA40DA50DA60DF70324
:100CB0000319EB2E502EA2178C2EA21383126F084D
:100CC0008316A100A11F662EA617E42EA613E42EFC
:100CD00083126F088316A600A6177008A500710876
:100CE000A400A11F772EA6132215F02E2211A30116
:100CF00020106D3084008313052FA11BA22E8312B8
:100D00006B088316A100201C8C2EA60CA50CA40C2D
:100D1000A30CF70A0319EB2EA31F9D2EA40A031D93
:100D20009D2EA50A031D9D2EA60A031D9D2EA60C11
:100D3000A50CA40CF70A0319EB2E221B0F2EA21BE5
:100D40005D2EC52E8030A606A61FAC2EF02E831277
:100D50006F088316A100BB2E83126B088316A100B7
:100D6000A608031DBB2EA508031DBB2EA408031D4A
:100D7000BB2EF701E42EA61BC52E0310A30DA40D58
:100D8000A50DA60DF70BBB2EEB2EA11FC92EA61786
:100D9000E42EA613E42E83126E08F7006F08831664
:100DA000A6007008A5007108A400E42E83126A084A
:100DB000F7006B088316A60083126C088316A50043
:100DC00083126D088316A4002608F8002508F90090
:100DD0002408FA00232FF701F801F901FA01232F63
:100DE000A301A409A509A609A309A30A031DFE2EB0
:100DF000A40A031DFE2EA50A0319A60A2218EE2D29
:100E0000A2183C2E2219762EA72E0008A407031C38
:100E10000F2FA50A031D0F2FA60A03192014840300
:100E20000008A507031C172FA60A03192014840322
:100E30000008801F803AA60703182014221AF52DF7
:100E4000A21A432E7D2E83120800EF01EE01ED0160
:100E5000EC016A08F3006908F2006808F10067080D
:100E6000F0006D08F4007108F406F41F3C2F031124
:100E70000310ED1B03146F2F6D08F4007008F500CC
:100E80006C08F50203194A2FF41F6F2F0308013A6B
:100E900083006F2F7108F5006D08F5020319562FB6
:100EA000F41F6F2F0308013A83006F2F7208F500BB
:100EB0006E08F5020319622FF41F6F2F0308013A21
:100EC00083006F2F7308F5006F08F50203196E2F6A
:100ED000F41F6F2F0308013A83006F2F0310031CC8
:100EE000742F0130EB00752FEB016B08F8008A15A9
:100EF0000A124E2A0B08E3008B13831603178C1774
:100F00000C140000000083120313E31B8B1703175C
:100F10000C087F390319CE2F0313E30003170D08C4
:100F20000313E40003170F080313E5006308F00040
:100F3000A423640803178D000313650803178F00AB
:100F400003130B08E6008B13831603178C170C147E
:100F50000000000083120313E61B8B1703170C0D10
:100F60000E0D7F390319CE2F0313E30003170D086D
:100F70000313E40003170F080313E5006308F000F0
:100F8000A423640803178D000313650803178F005B
:100F90008D0A03198F0A03137A2F0317031308000E
:1010000003081F398300A101A001A301A201A501CA
:10101000A401EC30A9005130A8006630A70086304A
:10102000A600AD01AC01AB01AA01B101B001AF0155
:10103000AE01C830C5009130C4002C30C3008730E9
:10104000C200FF30CA00CC01CB0183160317090888
:10105000C039890003131F129F1200300317880044
:10106000831287018801890183138C300313B20036
:101070007E30B3009A30B400F330B5008830B6004B
:10108000F730B7004D30B800B530B9008C30BA0039
:10109000D830BB007030BC00B830BD008830BE0016
:1010A0000730BF002630C000EA30C100C601C701CA
:1010B000C801C9018A11E2288A158A1128298A15CE
:1010C000D001CF01CE01CD01D401D301D201D10194
:1010D0008A117E218A157A08D4007908D30078080D
:1010E000D2007708D1008A117E218A157A08D000B3
:1010F0007908CF007808CE007708CD005008540258
:10110000031CC528031D94284F085302031CC5283F
:10111000031D94284E085202031CC528031D942861
:101120004D085102031CC5284D085102F700520812
:10113000F8004E08031C4E0FF8025308F9004F0840
:10114000031C4F0FF9025408FA005008031C500FFB
:10115000FA027A08E6007908E5007808E4007708E2
:10116000E3008A110B228A157A08D8007908D70083
:101170007808D6007708D5005808AD005708AC00AD
:101180005608AB005508AA00F52851084D02F70093
:101190004E08F8005208031C520FF8024F08F900DD
:1011A0005308031C530FF9025008FA005408031C9B
:1011B000540FFA027A08E6007908E5007808E4009E
:1011C0007708E3008A110B228A157A08DC00790877
:1011D000DB007808DA007708D9005C08AD005B080E
:1011E000AC005A08AB005908AA002D08E6002C08EC
:1011F000E5002B08E4002A08E3002908EA00280893
:10120000E9002708E8002608E7008A11262A8A153F
:101210007A08B1007908B0007808AF007708AE000E
:101220008A11022B8A157908A1007808A0008A117A
:10123000272B8A157908A3007808A2008A114C2B65
:101240008A157908A5007808A4002008C60022089D
:10125000C7002408C8003108E6003008E5002F0860
:10126000E4002E08E3008A11712B8A157808C90062
:101270000C30F0008A11A4238A150130F100F2002D
:101280008A1192238A155230F0008A11A4238A15FC
:101290003A30F0008A11A4238A152030F0008A1118
:1012A000A4238A15103084002108E4002008E300FC
:1012B0008A11D0238A150130F1000230F2008A1120
:1012C00092238A154730F0008A11A4238A153A30F8
:1012D000F0008A11A4238A152030F0008A11A4237B
:1012E0008A15103084002308E4002208E3008A11E4
:1012F000D0238A150930F1000130F2008A119223BF
:101300008A154230F0008A11A4238A153A30F00081
:101310008A11A4238A152030F0008A11A4238A158B
:10132000103084002508E4002408E3008A11D0234B
:101330008A150830F1000230F2008A1192238A15D2
:101340005730F0008A11A4238A153A30F0008A1130
:10135000A4238A15893084003108E6003008E500AE
:101360002F08E4002E08E3000230E7008A11B92CB0
:101370008A150430E300FA30F1008A110F208A1533
:10138000E30BBB29E001DF01DE01DD01E101E20148
:101390006208033C031C282A46306207840083133A
:1013A0000008E300620DF700F70DFC30F705770841
:1013B000323E840083130008E400840A0008E5003C
:1013C000840A0008E600840A0008E700E9016308CF
:1013D000E8008A119B2D8A157A08F3007908F2003B
:1013E0007808F1007708F0006708FE006608FD0045
:1013F0006508FC006408FB008A1133248A15E901A2
:101400000408E8006910831B691483106008ED006C
:101410005F08EC005E08EB005D08EA007A08F10066
:101420007908F0007808EF007708EE008A11BA25F5
:101430008A15680884008313691883177A08E00006
:101440007908DF007808DE007708DD00E20AC829A5
:1014500083106008ED005F08EC005E08EB005D089B
:10146000EA004508F1004408F0004308EF00420894
:10147000EE008A11BA258A157A08E6007908E50097
:101480007808E4007708E3006608EA006508E900E8
:101490006408E8006308E7008A11252F8A15780898
:1014A000E100610B6C2A0130F100F2008A119223F5
:1014B0008A15043003178D0000308F008A11031342
:1014C0007A278A150430E300FA30F1008A110F20E0
:1014D0008A15E30B642A842A0130F100F2008A1194
:1014E00092238A15093003178D0000308F008A116E
:1014F00003137A278A150430E300FA30F1008A11C9
:0C1500000F208A15E30B7D2A732863007E
:04400E00E12FFF3F60
:00000001FF
;PIC16F887
;CRC=9B59  CREATED="21-nov.-21 13:27"
