:1000000000308A00CB2800004B30840083170008A2
:10001000031918280130F800F701F70B0D28F80B29
:100020000C284A30F700F70B13281628800B0A28F3
:10003000080003174F0EF039F7000F3003130605C1
:10004000770486000000061425280610080006081C
:10005000F700060E0F39F800080028300317C70014
:100060000C30C8000130C9000630CA000313061066
:10007000861006110F3083160605860006108610BE
:1000800006110F3083120317CB0003130420013035
:100090000317C6004608033C031C5A280330CF0050
:1000A0000313192005300317CB0003130420031793
:1000B000C60A4A280230CF0003131920053003175F
:1000C000CB00031304200317C6014608033C031C9E
:1000D000C72847304607840083170008CB00CC01AF
:1000E0004B08CD00831603130610861006118312E9
:1000F00086100F3083160605F03886008312061529
:10010000000006140000272078080317CF0003130F
:100110000610000006140000272078080317CE0000
:10012000031306100F30831606058600831203178B
:100130004F0EF700F030F70577084E04F800780806
:10014000CE00CE1FA528031379284C18AA28031324
:10015000861003174C1CAF280313861403170000E6
:10016000031306110000061003174D0ECE000F30CA
:10017000CE054E08CF000313192003174D080F3981
:10018000CE00CF00031319200317C60A65280313F6
:100190008A110A12D82803081F398300FF30A000F3
:1001A00083161F149F141F159F11831383122D286C
:1001B000FF308316850008308600003087008312E8
:1001C000A0008316860183128601A0008316870192
:1001D000831287018316850183128501A101A20183
:1001E000A301A401A501A601A7010130A800A9004F
:1001F000AA00AB00AC00AD00AE01AF01B000B10091
:10020000B201B301B401B501B600B700B801B9003D
:10021000BA00BB01BC00BD00BE00BF00C000C101F0
:10022000C201C300C401C500C600C701C801C9009E
:10023000CA00CB00CC01CD00CE00CF01D000D10050
:10024000D200D301D400D500D600D700D800D90001
:10025000DA00DB00DC01DD01DE01DF01E000E100AE
:10026000E200E300E400E500E600E700E800E90062
:10027000EA00EB01EC00ED0080308316A00097301F
:10028000A1003730A2006A30A3007B30A400063002
:10029000A5005830A6003130A7007F30A800FF30FD
:1002A000A9008F30AA00A130AB007F30AC00C8306D
:1002B000AD009130AE00A430AF008130B0003530D9
:1002C000B1006C30B2007430B3008030B4000F3035
:1002D000B500E130B6002D30B7007D30B8003E30BB
:1002E000B900E530BA00EC30BB008030BC0097307C
:1002F000BD003730BE006A30BF007B30C000063022
:10030000C1005830C2003130C3007F30C400FF301C
:10031000C5008F30C600A130C7007F30C800C8308C
:10032000C9009130CA00A430CB008130CC003530F8
:10033000CD006C30CE007430CF008030D0000F3054
:10034000D100E130D2002D30D3007D30D4003E30DA
:10035000D500E530D600EC30D7008030831203178B
:10036000900097309100373092006A3093007B30D4
:1003700094000630950058309600313097007F3059
:100380009800FF3099008F309A00A1309B007F3099
:100390009C00C8309D0091309E00A4309F008130A9
:1003A000A0003530A1006C30A2007430A300803072
:1003B000A4000F30A500E130A6002D30A7007D304D
:1003C000A8003E30A900E530AA00EC30AB00B83000
:1003D000F1007C30F00099300313EF007E30EE0026
:1003E000B830F5007C30F4009930F3007E30F20034
:1003F000B830FE007C30FD009930FC007E30FB0000
:100400008316DC01DB01DA01D901DD01DE01DF0148
:10041000E001E101E201E301E401DE018312051CD8
:10042000142A8316DE0A83128316DF018312851CC9
:100430001C2A8316DF0A83128316E0018312051D2E
:10044000242A8316E00A83128316E1018312851D94
:100450002C2A8316E10A83128316E2018312051EF9
:10046000342A8316E20A83128316E3018312851E5F
:100470003C2A8316E30A83128316E4018312871F42
:0C048000442A8316E40A8312002A630059
:02400E00713F00
:00000001FF
;PIC16F876
;CRC=454B  CREATED="24-oct.-21 19:23"
