:100000002EEF04F00C4E6F20657869737465000064
:100010000C4E6F20657869737465206573652023C5
:100020000A000C53692065732070617200000C4E49
:100030006F2065732070617200000C536920657336
:1000400020696D70617200000C4E6F20657320692D
:100050006D7061720A000C5369206573203E350093
:100060000C4E6F206573203E35000C4E6F20657876
:10007000697374650000EA6ADB0EE96EEF500EE00A
:10008000010E016E006A002EFED7012EFBD74A0E2C
:10009000006E002EFED700D0EF2EF2D71200E0B196
:1000A00002D08A9801D08A889398E0B302D08A9AC5
:1000B00001D08A8A939AE0B502D08A9C01D08A8CBA
:1000C000939CE0B702D08A9E01D08A8E939E000056
:1000D0008A80939000D08A9093901200E16B93886D
:1000E000000E81B8010EE113938A000E81BA010E51
:1000F000006ED89000360050E113938C000E81BC46
:10010000010E006E00360036FC0E00160050E113A2
:10011000938E000E81BE010E006E00360036003652
:10012000F80E00160050E113E1C001F012009388B0
:10013000938A938C938E8A84939400008A80939000
:100140000000CCDF01C0E0F08A90939000008A802C
:1001500093900000C3DF01C0DFF08A9093909398E2
:10016000939A939C939EE039006EF00E0016005017
:10017000DF11016EC2EF00F09390939293948A92F4
:100180009392D5D701C0DFF001BEFBD7DD5302E16A
:100190008A9201D08A82939200008A9493940000FC
:1001A0008A909390DE39DF6F0F0EDF17DFC0E0F02B
:1001B00076DFDE510F0BDF6FE06F71DF1200280E6C
:1001C000D76F0C0ED86F010ED96F060EDA6F8A90BA
:1001D00093908A9293928A9493949398939A939CEF
:1001E000939E9390939293940F0EDB6F44DF010ED6
:1001F000D66FD651030808E3030EE06F50DF050EFB
:10020000DB6F39DFD62BF5D7020EE06F48DF050E26
:10021000DB6F31DFD66BD65103080DE3036AD6518D
:10022000D70FE96E000E0320EA6EEFCFDEF0DD6B34
:10023000A3DFD62BF0D787EF04F0DA2D01D003D05F
:10024000400EDB6F01D0DB6B010ED95DDB27DB518C
:100250008009DC6FDD6BDE6F8FDF1200D851070A7B
:1002600007E00B0A0AE0060A10E0020A14E018D0C0
:10027000010ED96FDA6FE1DF18D0DD6B010EDE6F92
:100280007BDF020EDB6FF7DE10D0010ED96F020E9E
:10029000DA6FD3DF0AD0DD6B100EDE6F6DDF05D0B5
:1002A000010EDD6FD8C0DEF067DF61EF01F00900FD
:1002B000F5520CE0F6CFD6F0F7CFD7F0F5CFD8F067
:1002C000CDD7D6C0F6FFD7C0F7FFF1D71200D62D95
:1002D0000ED0D72D0CD0D82D0AD0D92D08D0DA2D9C
:1002E00006D0DB2D04D0DC5302E1DD6B98D0D65371
:1002F0000FE1D72D0DD0D82D0BD0D95309E1DA530A
:1003000007E1DB5305E1DC5303E1010EDD6F87D02C
:10031000D62D0FD0D72D0DD0D8530BE1D92D09D024
:10032000DA2D07D0DB5305E1DC2D03D0020EDD6FA3
:1003300076D0D62D0FD0D72D0DD0D82D0BD0D92DCE
:1003400009D0DA5307E1DB5305E1DC2D03D0030EBE
:10035000DD6F65D0D6530FE1D72D0DD0D82D0BD042
:10036000D95309E1DA5307E1DB2D05D0DC2D03D0A9
:10037000040EDD6F54D0D62D0FD0D7530DE1D82DFC
:100380000BD0D92D09D0DA5307E1DB2D05D0DC2DB8
:1003900003D0050EDD6F43D0D62D0FD0D7530DE11E
:1003A000D82D0BD0D92D09D0DA2D07D0DB2D05D0D3
:1003B000DC2D03D0060EDD6F32D0D62D0FD0D72D19
:1003C0000DD0D82D0BD0D95309E1DA5307E1DB5317
:1003D00005E1DC5303E1070EDD6F21D0D62D0FD0F0
:1003E000D72D0DD0D82D0BD0D92D09D0DA2D07D08F
:1003F000DB2D05D0DC2D03D0080EDD6F10D0D62DFF
:100400000ED0D72D0CD0D82D0AD0D92D08D0DA5344
:1004100006E1DB2D04D0DC2D02D0090EDD6FDDC03E
:1004200001F01FEF06F08E0E006EDCC001F0DBC0A5
:1004300002F0036A015209E102C001F0026A080EEB
:10044000005E015202E1006A08D0D89001BE04D0DB
:10045000023601360006F9D7019E1200DB51D8B4EE
:1004600071D0006EDF51D8B46DD0002604E3810E48
:10047000002668E204D07F0E005E64E363E0DCC027
:10048000E3F0E051E31BDC8FE08FDE51E203F4CFB9
:10049000E5F0DD51E103F4CF03F0F3CFE4F0E20344
:1004A000F350E527F450E423000E0322DE51E1036C
:1004B000F350E527F450E423000E026A03220222DF
:1004C000DC51E203F350E427F4500322000E022231
:1004D000DC51E103F3500326F4500222000E016ABE
:1004E0000122DE51E003F350E427F4500322000E12
:1004F00002220122DD51E003F3500326F4500222D0
:10050000000E0122DC51E003F3500226F4500122D8
:10051000002A01BE05D0E437033602360136000654
:10052000000EE4AF0AD0032A02220122015005E1A5
:10053000025003E1035001E1002AE3BF018EE3AF63
:10054000019E04D0006A016A026A036A1200800EEA
:10055000D8B2E21BE76BE86BDEC0E6F0E251E61BC7
:10056000DD51D8B4DCD0E56F006EE151D8B4E0D0F5
:10057000E55FD8B481D03DE3E2C0EBF0EB8FE3C0A0
:10058000EAF0E4C0E9F0E86BD890EB33EA33E93302
:10059000E833E52FF8D7E6AF03D0E781DDD0E79168
:1005A000E591E789EA6AE00EE96EE9D0E799E6BFEE
:1005B0000AD0E5A113D0EB33EA33E933E833002A5C
:1005C000D8B4C5D00BD0EBBF0CD0D890E837E93702
:1005D000EA37EB370006D8B4BAD0F5D7E78D6BD041
:1005E000E79DDEC0E6F0DEAF02D0EB8FA9D0EB9F37
:1005F000A7D0E1C0E5F0E1C000F0DD51E55FDEC06D
:10060000EBF0EB8FDFC0EAF0E0C0E9F0E86BD890E8
:10061000EB33EA33E933E833E52FF8D7E6AF03D01D
:10062000E7839AD0E793E591E78BEA6AE40EE96EF7
:10063000A6D0E79BE6BF0AD0E5A113D0EB33EA339F
:10064000E933E833002AD8B482D00BD0EBBF0CD00A
:10065000D890E837E937EA37EB370006D8B477D0D7
:10066000F5D7E78F28D0E79FE2C0E6F0E2AF02D0EF
:10067000EB8F66D0EB9F64D0E2C0EBF0EB8FE3C072
:10068000EAF0E4C0E9F0E6AF04D0EB9FE78564D080
:10069000E795E86BE591EA6AE00EE96E70D0E6BF97
:1006A0001CD0DEC0E6F0E5A106D0EB33EA33E93337
:1006B000E833002A4CE0E8AF0BD0E92B09E1EA2B44
:1006C00007E1EB2B05E1EB33EA33E933002A3FE0A6
:1006D000E7BD86D7E7BFC7D71CD0800EEB1BEBAFBB
:1006E00004D03AD0E2C0E6F00AD0DEC0E6F0EB5328
:1006F00006E1EA5304E1E95302E1006A21D0EBBFCD
:1007000008D0D890E837E937EA37EB37002EF7D72B
:100710001ED0E6AF02D0EB8F13D0EB9F11D0E1C01B
:1007200000F0E2C0EBF0E3C0EAF0E4C0E9F008D08A
:10073000DDC000F0DEC0EBF0DFC0EAF0E0C0E9F0C1
:10074000EBC001F0EAC002F0E9C003F034D0006A67
:10075000016A026A036A2FD0E86BE91FEA1FEB1FE8
:10076000E81FE82B05E1E92B03E1EA2B01E1EB2B84
:10077000E7B115D7E7B356D7E7B58AD7B3D7EF5068
:10078000E92705E3EA2B03E1EB2BD8B4E581ED5231
:10079000EF50EA2703E3EB2BD8B4E581ED52EF509D
:1007A000EFBE01D0800AEB27D8B0E581E7B9FED6CD
:1007B000E7BB3FD774D71200E0C0E7F0E451E71B76
:1007C000E7AF05D0D894D890E0BFD8802FD0E0C054
:1007D000E7F0E3C0E8F0DF51E85F06E0E7AF26D0DE
:1007E000D850010AD86E22D0E4C0E8F0E051E85FAA
:1007F00006E0E7AF1BD0D850010AD86E17D0E5C08D
:10080000E8F0E151E85F06E0E7AF10D0D850010A08
:10081000D86E0CD0E6C0E8F0E251E85F06E0E7AF42
:1008200005D0D850010AD86E01D0D89025EF04F039
:10083000E26BE16BE06BDF6BDDC0E6F0DCC0E5F0A6
:10084000DBC0E4F0DAC0E3F0B7D703E3010EDE6FFC
:1008500001D0DE6BDEC001F0E8EF09F0F86AD09E4F
:10086000836B826BC150C00B0F09C16E070EB46E53
:100870002ED01C400E0054807FAE754A7F3600E9B2
:100880007FFDABFD7C891B42812BD643800994BC44
:100890007EFFD718801195DA7EE313A57F1A13C463
:1008A0007E05282981BF1EC180B0209B7D389C75A4
:1008B0008327269E7C6D6C71810C2B19838C6BD3E6
:1008C0008110A32C807937F38227B2830000000EB9
:1008D000F86E080EF76E720EF66E0900F550006E97
:1008E000000A13E00900F550016EE8BE05D03F0B89
:1008F000EA6E0900F5CFE9FF01BC090001AC09006F
:10090000F5CFEEFF004EE9D7F9D7F86A58D4FF0EBD
:10091000926E080E936E000E946E070E956E926A9C
:10092000896A936A8A6A946A8B6A956A8C6A010EEC
:10093000846F856F866F876F886F896F8A6B8B6B0B
:100940008C6F8D6F8E6B8F6B906B916B926F936FC3
:10095000946B956F966F976B986F996F9A6F9B6F6B
:100960009C6F9D6B9E6B9F6FA06BA16FA26FA36B23
:10097000A46BA56FA66FA76FA86BA96FAA6FAB6BCF
:10098000AC6FAD6FAE6FAF6BB06FB16FB26FB36F77
:10099000B46FB56FB66FB76FB86BB96BBA6BBB6B33
:1009A000BC6FBD6FBE6FBF6FC06FC16FC26FC36FD3
:1009B000C46FC56FC66FC76BC86FC96FCA6B9280B3
:1009C000046A80B0042A9282056A80B2052A928461
:1009D000066A80B4062A9286076A80B6072A928839
:1009E000086A80B8082A928A096A80BA092A938616
:1009F0000A6A81B60A2A95800B6A83B00B2A95820F
:100A00000C6A83B20C2A95840D6A83B40D2A0B2CD0
:100A10003ED00C523CE10D523AE1CC6BCC51060871
:100A20002BE3CC51040DF350036A0E0F016E000E40
:100A3000032201C0D6F003C0D7F0CC51040DF3500F
:100A4000036A2A0FE96E000E0320EA6EEFCF00F072
:100A5000ECCF01F0ECCF02F0ECCF03F0D7C0EAFF0F
:100A6000D6C0E9FF00C0EFFF01C0ECFF02C0ECFF01
:100A700003C0ECFFCC2BD2D74C0E816F280E806FB9
:100A8000270E7F6F7D0E7E6F010ECA6F8CD00B52CA
:100A90003EE10C2C3CD00D523AE1CD6BCD51060815
:100AA0002BE3CD51040DF350036A0E0F016E000EBF
:100AB000032201C0D6F003C0D7F0CD51040DF3508E
:100AC000036A460FE96E000E0320EA6EEFCF00F0D6
:100AD000ECCF01F0ECCF02F0ECCF03F0D7C0EAFF8F
:100AE000D6C0E9FF00C0EFFF01C0ECFF02C0ECFF81
:100AF00003C0ECFFCD2BD2D7880E816FAB0E806F79
:100B0000100E7F6F7F0E7E6F020ECA6F4CD00B529D
:100B10003EE10C523CE10D2C3AD0CE6BCE51060892
:100B20002BE3CE51040DF350036A0E0F016E000E3D
:100B3000032201C0D6F003C0D7F0CE51040DF3500C
:100B4000036A620FE96E000E0320EA6EEFCF00F039
:100B5000ECCF01F0ECCF02F0ECCF03F0D7C0EAFF0E
:100B6000D6C0E9FF00C0EFFF01C0ECFF02C0ECFF00
:100B700003C0ECFFCE2BD2D7CA0E816F230E806F3D
:100B8000B10E7F6F830E7E6F030ECA6F0CD0010E05
:100B9000D96FDA6F1DEC01F0040EF66E000EF76EE1
:100BA00057EC01F0CA6B042C03D094908B8002D0D8
:100BB00094908B90052C03D094928B8202D09492C7
:100BC0008B92062C03D094948B8402D094948B94B3
:100BD000072C03D094988B8802D094988B98082C7B
:100BE00003D0949A8B8A02D0949A8B9A092C03D0C2
:100BF000949C8B8C02D0949C8B9C0A2C03D0949E4A
:100C00008B8E02D0949E8B9ECB6BCB510908D8A0C3
:100C10006FEF0AF0D46BD36BD26BD16BD56B04C082
:100C2000D6F005C0D7F006C0D8F007C0D9F008C08C
:100C3000DAF009C0DBF00AC0DCF067EF01F001C0B8
:100C4000D0F0D0511CE0010AD8B471D0030AD8B456
:100C5000C7D0010AD8B41DD1070AD8B473D1010A8C
:100C6000D8B4C9D1030AD8B41FD2010AD8B475D2F6
:100C70000F0AD8B4CBD2010AD8B421D379D3CF6B21
:100C8000CF51060853E3036ACF51840FE96E000E7B
:100C90000320EA6EEFCFDBF0CF51040DF350036A6F
:100CA0000E0FE96E000E0320EA6EEFCFD7F0ECCF07
:100CB000D8F0ECCFD9F0ECCFDAF0DC6B13EC02F02B
:100CC00003C0DEF002C0DDF001C0DCF000C0DBF0EC
:100CD000DAC0E2F0D9C0E1F0D8C0E0F0D7C0DFF070
:100CE0002EEC02F0EACFDCF0E9CFDBF0D892D4C0F2
:100CF000E0F0D3C0DFF0D2C0DEF0D1C0DDF003C041
:100D0000E4F002C0E3F001C0E2F000C0E1F01FDC5B
:100D1000DCC0EAFFDBC0E9FF03C0D4F002C0D3F0BF
:100D200001C0D2F000C0D1F0CF2BAAD72CD3CF6B0B
:100D3000CF51060854E3036ACF518B0FE96E000EC2
:100D40000320EA6EEFCFDBF0CF51040DF350036ABE
:100D50000E0FE96E000E0320EA6EEFCFD7F0ECCF56
:100D6000D8F0ECCFD9F0ECCFDAF0DC6B13EC02F07A
:100D700003C0DEF002C0DDF001C0DCF000C0DBF03B
:100D8000DAC0E2F0D9C0E1F0D8C0E0F0D7C0DFF0BF
:100D90002EEC02F0EACFDCF0E9CFDBF0D892D4C041
:100DA000E0F0D3C0DFF0D2C0DEF0D1C0DDF003C090
:100DB000E4F002C0E3F001C0E2F000C0E1F0A7EC13
:100DC00002F0DCC0EAFFDBC0E9FF03C0D4F002C0E0
:100DD000D3F001C0D2F000C0D1F0CF2BA9D7D3D22D
:100DE000CF6BCF51060854E3036ACF51920FE96EDF
:100DF000000E0320EA6EEFCFDBF0CF51040DF3506D
:100E0000036A0E0FE96E000E0320EA6EEFCFD7F0F3
:100E1000ECCFD8F0ECCFD9F0ECCFDAF0DC6B13EC00
:100E200002F003C0DEF002C0DDF001C0DCF000C063
:100E3000DBF0DAC0E2F0D9C0E1F0D8C0E0F0D7C012
:100E4000DFF02EEC02F0EACFDCF0E9CFDBF0D89255
:100E5000D4C0E0F0D3C0DFF0D2C0DEF0D1C0DDF00E
:100E600003C0E4F002C0E3F001C0E2F000C0E1F032
:100E7000A7EC02F0DCC0EAFFDBC0E9FF03C0D4F05E
:100E800002C0D3F001C0D2F000C0D1F0CF2BA9D75F
:100E90007AD2CF6BCF51060854E3036ACF51990F32
:100EA000E96E000E0320EA6EEFCFDBF0CF51040DA8
:100EB000F350036A0E0FE96E000E0320EA6EEFCFC7
:100EC000D7F0ECCFD8F0ECCFD9F0ECCFDAF0DC6B88
:100ED00013EC02F003C0DEF002C0DDF001C0DCF074
:100EE00000C0DBF0DAC0E2F0D9C0E1F0D8C0E0F039
:100EF000D7C0DFF02EEC02F0EACFDCF0E9CFDBF078
:100F0000D892D4C0E0F0D3C0DFF0D2C0DEF0D1C0C0
:100F1000DDF003C0E4F002C0E3F001C0E2F000C085
:100F2000E1F0A7EC02F0DCC0EAFFDBC0E9FF03C0A0
:100F3000D4F002C0D3F001C0D2F000C0D1F0CF2B6A
:100F4000A9D721D2CF6BCF51060854E3036ACF5102
:100F5000A00FE96E000E0320EA6EEFCFDBF0CF5159
:100F6000040DF350036A0E0FE96E000E0320EA6EC3
:100F7000EFCFD7F0ECCFD8F0ECCFD9F0ECCFDAF060
:100F8000DC6B13EC02F003C0DEF002C0DDF001C048
:100F9000DCF000C0DBF0DAC0E2F0D9C0E1F0D8C08C
:100FA000E0F0D7C0DFF02EEC02F0EACFDCF0E9CFC2
:100FB000DBF0D892D4C0E0F0D3C0DFF0D2C0DEF0D6
:100FC000D1C0DDF003C0E4F002C0E3F001C0E2F004
:100FD00000C0E1F0A7EC02F0DCC0EAFFDBC0E9FFF3
:100FE00003C0D4F002C0D3F001C0D2F000C0D1F0F1
:100FF000CF2BA9D7C8D1CF6BCF51060854E3036AD2
:10100000CF51A70FE96E000E0320EA6EEFCFDBF0A1
:10101000CF51040DF350036A0E0FE96E000E03204A
:10102000EA6EEFCFD7F0ECCFD8F0ECCFD9F0ECCF21
:10103000DAF0DC6B13EC02F003C0DEF002C0DDF08E
:1010400001C0DCF000C0DBF0DAC0E2F0D9C0E1F0B2
:10105000D8C0E0F0D7C0DFF02EEC02F0EACFDCF031
:10106000E9CFDBF0D892D4C0E0F0D3C0DFF0D2C03B
:10107000DEF0D1C0DDF003C0E4F002C0E3F001C057
:10108000E2F000C0E1F0A7EC02F0DCC0EAFFDBC058
:10109000E9FF03C0D4F002C0D3F001C0D2F000C019
:1010A000D1F0CF2BA9D76FD1CF6BCF51060854E326
:1010B000036ACF51AE0FE96E000E0320EA6EEFCF48
:1010C000DBF0CF51040DF350036A0E0FE96E000EF2
:1010D0000320EA6EEFCFD7F0ECCFD8F0ECCFD9F009
:1010E000ECCFDAF0DC6B13EC02F003C0DEF002C0F0
:1010F000DDF001C0DCF000C0DBF0DAC0E2F0D9C006
:10110000E1F0D8C0E0F0D7C0DFF02EEC02F0EACF7B
:10111000DCF0E9CFDBF0D892D4C0E0F0D3C0DFF050
:10112000D2C0DEF0D1C0DDF003C0E4F002C0E3F0D5
:1011300001C0E2F000C0E1F0A7EC02F0DCC0EAFF81
:10114000DBC0E9FF03C0D4F002C0D3F001C0D2F08D
:1011500000C0D1F0CF2BA9D716D1CF6BCF51060845
:1011600054E3036ACF51B50FE96E000E0320EA6E17
:10117000EFCFDBF0CF51040DF350036A0E0FE96E91
:10118000000E0320EA6EEFCFD7F0ECCFD8F0ECCF13
:10119000D9F0ECCFDAF0DC6B13EC02F003C0DEF038
:1011A00002C0DDF001C0DCF000C0DBF0DAC0E2F02C
:1011B000D9C0E1F0D8C0E0F0D7C0DFF02EEC02F0EB
:1011C000EACFDCF0E9CFDBF0D892D4C0E0F0D3C0B6
:1011D000DFF0D2C0DEF0D1C0DDF003C0E4F002C029
:1011E000E3F001C0E2F000C0E1F0A7EC02F0DCC0E7
:1011F000EAFFDBC0E9FF03C0D4F002C0D3F001C0B6
:10120000D2F000C0D1F0CF2BA9D7BDD0CF6BCF513A
:10121000060854E3036ACF51BC0FE96E000E0320A9
:10122000EA6EEFCFDBF0CF51040DF350036A0E0FDF
:10123000E96E000E0320EA6EEFCFD7F0ECCFD8F0C6
:10124000ECCFD9F0ECCFDAF0DC6B13EC02F003C09A
:10125000DEF002C0DDF001C0DCF000C0DBF0DAC07F
:10126000E2F0D9C0E1F0D8C0E0F0D7C0DFF02EEC5A
:1012700002F0EACFDCF0E9CFDBF0D892D4C0E0F0A6
:10128000D3C0DFF0D2C0DEF0D1C0DDF003C0E4F0A7
:1012900002C0E3F001C0E2F000C0E1F0A7EC02F010
:1012A000DCC0EAFFDBC0E9FF03C0D4F002C0D3F02A
:1012B00001C0D2F000C0D1F0CF2BA9D764D0CF6B42
:1012C000CF51060854E3036ACF51C30FE96E000EF5
:1012D0000320EA6EEFCFDBF0CF51040DF350036A29
:1012E0000E0FE96E000E0320EA6EEFCFD7F0ECCFC1
:1012F000D8F0ECCFD9F0ECCFDAF0DC6B13EC02F0E5
:1013000003C0DEF002C0DDF001C0DCF000C0DBF0A5
:10131000DAC0E2F0D9C0E1F0D8C0E0F0D7C0DFF029
:101320002EEC02F0EACFDCF0E9CFDBF0D892D4C0AB
:10133000E0F0D3C0DFF0D2C0DEF0D1C0DDF003C0FA
:10134000E4F002C0E3F001C0E2F000C0E1F0A7EC7D
:1013500002F0DCC0EAFFDBC0E9FF03C0D4F002C04A
:10136000D3F001C0D2F000C0D1F0CF2BA9D70BD061
:10137000010ED96FDA6F1DEC01F0100EF66E000E43
:10138000F76E57EC01F0D892D4C0E0F0D3C0DFF094
:10139000D2C0DEF0D1C0DDF081C0E4F080C0E3F067
:1013A0007FC0E2F07EC0E1F0A7EC02F003C0D9F00C
:1013B00002C0D8F001C0D7F000C0D6F003C0DDF005
:1013C00002C0DCF001C0DBF000C0DAF018EF04F07E
:1013D00001C0D5F0D52D0ED0CA2D0CD0010ED96F7D
:1013E000DA6F1DEC01F0220EF66E000EF76E57EC70
:1013F00001F05FD0D5530EE1CA2D0CD0010ED96F8C
:10140000DA6F1DEC01F02E0EF66E000EF76E57EC43
:1014100001F04FD0D52D0FD0CA5102080CE1010EBA
:10142000D96FDA6F1DEC01F03A0EF66E000EF76E12
:1014300057EC01F03ED0D5530FE1CA5102080CE140
:10144000010ED96FDA6F1DEC01F0480EF66E000E3A
:10145000F76E57EC01F02DD0D52D0FD0CA510308EF
:101460000CE1010ED96FDA6F1DEC01F0560EF66E2D
:10147000000EF76E57EC01F01CD0D5530FE1CA51A6
:1014800003080CE1010ED96FDA6F1DEC01F0600E5C
:10149000F66E000EF76E57EC01F00BD0010ED96F0F
:1014A000DA6F1DEC01F06A0EF66E000EF76E57EC67
:1014B00001F0040ED66FFA0EDB6F3BEC00F0D62F76
:1014C000FAD7046A056A066A076A086A096A0A6A34
:1014D0000B6A0C6A0D6ACA6BCB2B05EF06F0DEEFC8
:0414E00004F0030011
:020000040030CA
:0E00000000C0261E0087A1000FC00FE00F40B9
:00000001FF
;PIC18F4550
;CRC=910A  CREATED="24-oct.-21 16:30"
