:1000000008308A00002800008C296910E539203862
:10001000613900008C296910E539A0346D386139E7
:1000200000018C296910E539201FA01A00010C2756
:100030006F10E5392038613900010C276F10E53960
:10004000A0346D38613900010C276F10E539201F8D
:10005000A01A00010C276F10653CE939F43220101A
:10006000201020102000CE37A0396536E531E3346A
:100070006F376F00E3377239E531F430ED326E3AA5
:100080006500583084008317000803195528013093
:10009000F800F701F70B4A28F80B49284A30F70017
:1000A000F70B50285328800B4728080003175F18C8
:1000B0005D28031306125F28031703130616831621
:1000C000061283120317DF186928031386126B28A0
:1000D00003170313861683168612831203175F19FC
:1000E00075280313061377280317031306178316BF
:1000F000061383120317DF1981280313861383283D
:100100000317031386178316861300008312061441
:10011000831606108B28831206108316061083128E
:1001200008000317E001831603130616003083123C
:10013000061A01300317E0048316031386160030F5
:100140008312861A0130F7000310F70D77080317A2
:10015000E00483160313061700308312061B0130D8
:10016000F700F70DF70DFC30F70577080317E004EB
:1001700083160313861700308312861B0130F700A5
:10018000F70DF70DF70DF830F70577080317E004C2
:100190006008F80003130800831606108610061185
:1001A0008312861083168610061686160617861783
:1001B0008312061583160611000083120614831697
:1001C000061000008312912078080317DF00031344
:1001D00006108316061000008312061483160610FC
:1001E00000008312912078080317DE000313061025
:1001F000831606100612861206138613831203173F
:100200005F0EF700F030F70577085E04F800780815
:10021000DE00DE1F0E2983160313D428DC08031D1D
:100220001529031386101729031703138614831641
:100230008610000083120611831606110000831237
:10024000061083160610831203175D0EDE000F30B2
:10025000DE055E08DF000313562003175D080F3923
:10026000DE00DF0003135620080028300317C90002
:100270000C30CA000130CB000630CC00031306104E
:1002800083160610831286108316861083120611B9
:1002900083160611061286120613861306108610A0
:1002A00006110F3083120317D800031341200130C9
:1002B0000317C8004808033C031C6A290330DF0009
:1002C0000313562005300317D800031341200317EA
:1002D000C80A5A290230DF000313562005300317DD
:1002E000D800031341200317C8014808033C031C2E
:1002F000872949304807840083170008CD00DC01B6
:100300004D08DD000313CC200317C80A7529031319
:100310008A150A12212983160514D8018312051C97
:1003200094298316D80A831283168514D90183125F
:10033000851C9D298316D90A831283160515DA01B7
:100340008312051DA6298316DA0A831283168515E2
:10035000DB018312851DAF298316DB0A8312831606
:100360000516DC018312051EB8298316DC0A8312E8
:1003700083168516DD018312851EC1298316DD0AC9
:10038000831283168615DE018312861DCA29831601
:10039000DE0A83128316D808031DD22983120710A0
:1003A000D42983168312071420102008831687008F
:1003B000D908031DDF2983128710E12983168312D0
:1003C0008714A010200883168700DA08031DEC2983
:1003D00083120711EE2983168312071520112008B6
:1003E00083168700DB08031DF92983128711FB2977
:1003F000831683128715A011200883168700DC0856
:10040000031D062A83120712082A83168312071671
:100410002012200883168700DD08031D132A83128B
:100420008712152A831683128716A01220088316B6
:100430008700DE08031D202A83120713222A831651
:1004400083120717201320088316870083120800E1
:100450000317590B2C2A2F2A4030DA00302ADA01F0
:1004600001305802DA075A088038DB00DC015B08EB
:10047000DD000313CC20080003175708073A0313C5
:1004800003194C2A0B3A0319532A063A03195F2A17
:10049000023A0319672A6E2A01300317D800D900DF
:1004A00003132822752A0317DC010130DD00031332
:1004B000CC2002300317D80003134120752A0130E5
:1004C0000317D8000230D90003132822752A031716
:1004D000DC011030DD000313CC20752A0130031736
:1004E000DC005708DD000313CC2008000B080317BD
:1004F000D40003138B13831603178C170C140000FE
:1005000000008312D41F872A03138B1703170C08CC
:100510007F390319C42AD4000D08D5000F08D6006E
:100520005408D70003133C22031755088D005608C2
:100530008F0003130B080317D70003138B138316C5
:1005400003178C170C14000000008312D71FAB2A6E
:1005500003138B1703170C0D0E0D7F390319C42AD3
:10056000D4000D08D5000F08D6005408D700031397
:100570003C22031755088D0056088F008D0A031979
:100580008F0A0313762A0317031308008030831C95
:10059000CC2A0317E00603130317E501E6015C0804
:1005A000E4006008E4065B080319BA2BE300F700D7
:1005B0005F080319C32BE30203195F2B031C1D2BD8
:1005C0006008E900E9176108E8006208E700E60151
:1005D0000310E90CE80CE70CE60CE30BE72AE41F38
:1005E000F42A6514D72B6510631065165E308400FD
:1005F0008317EC2B6512E41B072B631C122BE90CF1
:10060000E80CE70CE60CF70A0319D22B122BE91BB6
:10061000152B0310E60DE70DE80DE90DF70303199F
:10062000D22B072B65177F2B65135C08E400E41FB2
:100630001B2BE917CB2BE913CB2B5F08E300F7004B
:100640005B08E3025C08E900E9175D08E8005E0862
:10065000E700E6010310E90CE80CE70CE60CE30BFD
:10066000292BE41F362BE514D72BE5106310E51674
:10067000623084008317EC2BE512E41B492B631CCA
:10068000542BE90CE80CE70CE60CF70A0319D22B03
:10069000542BE91B572B0310E60DE70DE80DE90D70
:1006A000F7030319D22B492BE5177F2BE5136008BD
:1006B000E400E41F5D2BE917CB2BE913CB2B60087B
:1006C000E900E9176108E8006208E700E41F6C2B05
:1006D000E9136515D72B6511E60163105E308400C0
:1006E0008317EC2BE41B952B5C08E400631C7F2B29
:1006F000E90CE80CE70CE60CF70A0319D22BE61F0D
:10070000902BE70A031D902BE80A031D902BE90AA2
:10071000031D902BE90CE80CE70CF70A0319D22B08
:10072000651B142BE51B562BB42B8030E906E91F03
:100730009D2BD72B6008E400AA2B5C08E400E90895
:10074000031DAA2BE808031DAA2BE708031DAA2BEB
:10075000F701CB2BE91BB42B0310E60DE70DE80DD9
:10076000E90DF70BAA2BD22BE41FB82BE917CB2BE3
:10077000E913CB2B5F08F7006008E9006108E80087
:100780006208E700CB2B5B08F7005C08E9005D0816
:10079000E8005E08E7006908F8006808F9006708E3
:1007A000FA000A2CF701F801F901FA010A2CE60116
:1007B000E709E809E909E609E60A031DE52BE70A66
:1007C000031DE52BE80A0319E90A6518F32AE51861
:1007D000352B65196B2B9A2B0008E707031CF62BAA
:1007E000E80A031DF62BE90A0319631484030008C1
:1007F000E807031CFE2BE90A0319631484030008AD
:10080000801F803AE90703186314651AFA2AE51A6B
:100810003C2B722B031308000317480B5C2CC901F7
:100820004908063C031C512C490DF700F70DFC301C
:10083000F70577082C3EF8000130FA000318FA0A91
:100840007808D4007A08D500490DF700F70DFC3080
:10085000F7057708A03E840083130008F700840A98
:100860000008F800840A0008F900840A0008FA0069
:10087000D9007908D8007808D7007708D60054083E
:10088000840083135518831756088000840A57087C
:100890008000840A58088000840A59088000C90A28
:1008A000102CFF300313EB003030EA009B30E900DE
:1008B0007C30E800FC2C03174808023C031DAD2CDB
:1008C000CA014A08063C031CA22C4A0DF700F70D8A
:1008D000FC30F70577082C3EF8000130FA000318C9
:1008E000FA0A7808D4007A08D5004A0DF700F70D07
:1008F000FC30F7057708BC3E840083130008F7003E
:10090000840A0008F800840A0008F900840A000834
:10091000FA00D9007908D8007808D7007708D600FF
:100920005408840083135518831756088000840ADE
:1009300057088000840A58088000840A59088000FB
:10094000CA0A612C1B300313EB00DC30EA00703064
:10095000E9007D30E800FC2C03174808033C031D28
:10096000FD2CCB014B08063C031CF32C4B0DF70070
:10097000F70DFC30F70577082C3EF8000130FA003F
:100980000318FA0A7808D4007A08D5004B0DF7004E
:10099000F70DFC30F7057708103E84008317000838
:1009A000F700840A0008F800840A0008F900840AA5
:1009B0000008FA00D9007908D8007808D70077082D
:1009C000D6005408840083135518831756088000F6
:1009D000840A57088000840A58088000840A59084D
:1009E0008000CB0AB22C10300313EB007930EA0000
:1009F000B830E9008330E800031703138B21031795
:100A0000CC01CD01CE01CD014D08093C031C512D77
:100A1000CC01CE014E08063C031C4B2D4D08D400E2
:100A20000730D500F701F801540803105518F707EF
:100A3000F70CF80CD518F707F70CF80C5519F70751
:100A4000F70CF80CD519F707F70CF80C551AF7073F
:100A5000F70CF80CD51AF707F70CF80C551BF7072D
:100A6000F70CF80CD51BF707F70CF80C4E087807B5
:100A7000213E840083130008D400D8304E07840040
:100A8000831300085402031D482D0130CC07492D63
:100A9000CC01CE0A0A2D4C08073C0319512DCD0A72
:100AA000042D4C08073C031D792FD201D101D00140
:100AB000CF01D301CE014E08063C031C472ED8308F
:100AC0004E07840083130008D4004E0DF700F70D85
:100AD000FC30F70577082C3E840083170008D5000A
:100AE000840A0008D600840A0008D700840A000897
:100AF000D800FD308407DA015408D9008E30F700A1
:100B00005A08F8005908F900FA01F808031D922D57
:100B10007908F800F9010830F702F808031D922D52
:100B2000F7019A2D0310F81B992DF90DF80DF70315
:100B3000922DF8137A08DC007908DB007808DA00D7
:100B40007708D9005808E0005708DF005608DE0093
:100B50005508DD00590803191A2EE1005D08031934
:100B60001A2EE1070318BB2D7F30E102031C1A2E59
:100B700003191A2EBF2D8130E10703181A2E6108C0
:100B8000F700F801F901FA015A08E500E5175B08DA
:100B9000E4005C08E3001830E100E201631CE82D8A
:100BA0006008FA07031CDA2DF90A031DDA2DF80A8A
:100BB0000319E2175F08F907031CE12DF80A03196E
:100BC000E2175E08DB00DB175B08F8070318E21783
:100BD000E20DF80CF90CFA0CE50CE40CE30C031034
:100BE000E10BCD2D0130F70703181A2EF81BFF2D4E
:100BF000E50DFA0DF90DF80DF70303191A2EE51F8F
:100C0000102EFA0A031D102EF90A031D102EF80AE1
:100C1000031D102EF80CF90CFA0CF70A03191A2E02
:100C20005A08E2005E08E206E21F182EF8171E2E90
:100C3000F8131E2EF701F801F901FA01DA01040890
:100C4000D9005A10831B5A1483105208DE00510831
:100C5000DD005008DC004F08DB007A08E20079086C
:100C6000E1007808E0007708DF000313C6220317CD
:100C70005908840083135A1883177A08D200790818
:100C8000D1007808D0007708CF00CE0A5B2D831002
:100C90005208DE005108DD005008DC004F08DB0080
:100CA00003136B080317E20003136A080317E1003C
:100CB000031369080317E000031368080317DF0034
:100CC0000313C6227A080317D7007908D6007808DC
:100CD000D5007708D4005708DB005608DA0055081D
:100CE000D9005408D800E001DF01DE01DD015B0816
:100CF000E4005A08E3005908E2005808E1005E08E1
:100D0000E5006208E506E51F8A2E03110310DE1BCD
:100D10000314BD2E5E08E5006108E6005D08E602EA
:100D20000319982EE51FBD2E0308013A8300BD2E3E
:100D30006208E6005E08E6020319A42EE51FBD2E38
:100D40000308013A8300BD2E6308E6005F08E6024F
:100D50000319B02EE51FBD2E0308013A8300BD2EF6
:100D60006408E6006008E6020319BC2EE51FBD2EEC
:100D70000308013A8300BD2E0310031CC22E01306C
:100D8000DC00C32EDC015C08F8007808D300530BAC
:100D9000212F4808013A03130319D52E033A0319EA
:100DA000EE2E013A0319072F1F2F01300317D80029
:100DB000D90003132822043003178D0000308F0060
:100DC0000313762204300317D400FA30D80003133B
:100DD00041200317D40BE52E03131F2F01300317F7
:100DE000D800D900031328220A3003178D000030E1
:100DF0008F000313762204300317D400FA30D80092
:100E0000031341200317D40BFE2E03131F2F0130B1
:100E10000317D800D90003132822113003178D00BF
:100E200000308F000313762204300317D400FA3009
:100E3000D800031341200317D40B172F0313772F68
:100E400003174808013A031303192D2F033A031916
:100E5000462F013A03195F2F772F01300317D8006F
:100E6000D90003132822173003178D0000308F009C
:100E70000313762204300317D400FA30D80003138A
:100E800041200317D40B3D2F0313772F0130031795
:100E9000D800D900031328221D3003178D0000301D
:100EA0008F000313762204300317D400FA30D800E1
:100EB000031341200317D40B562F0313772F013050
:100EC0000317D800D90003132822243003178D00FC
:100ED00000308F000313762204300317D400FA3059
:100EE000D800031341200317D40B6F2F0313962F41
:100EF00003170130D800D900031328222A30031722
:100F00008D0000308F00031376220030A00083167E
:100F100087018312870104300317D400FA30D80008
:100F2000031341200317D40B8E2F03138A150A12C3
:020F30009A29FC
:1010000003081F398300FF30A000E701EC01ED0168
:10101000EE010130EF00F000F100F301F201831660
:101020001F149F141F159F1107309C00831301305C
:101030008312A100A200A300A400A500A600A7019E
:10104000A801A900AA00AB01AC01AD01AE01AF003F
:10105000B000B101B200B300B401B500B600B700F2
:10106000B800B900BA01BB01BC00BD01BE00BF00A1
:10107000C001C101C200C300C400C501C600C70051
:10108000C801C900CA00CB00CC01CD00CE00CF0002
:10109000D000D100D200D300D400D501D601D701B1
:1010A000D801D900DA00DB00DC00DD00DE00DF0063
:1010B000E000E100E200E300E401E500E60080304A
:1010C0008316A0008630A1005F30A2007930A30013
:1010D0007C30A4006930A500AF30A600EB30A7003B
:1010E0007F30A8009730A9004930AA00A030AB009B
:1010F0007F30AC00B230AD00AE30AE000130AF009A
:101100008130B0006F30B100F830B2000730B3006A
:101110008030B4002F30B5003830B6005530B700FD
:101120007C30B8000E30B9009D30BA00FA30BB00F8
:101130008030BC007530BD002030BE008B30BF0059
:101140007E30C000F030C100F630C200AA30C300CB
:101150008030C4004F30C5009230C600F830C70060
:101160008030C8004030C9004830CA008830CB0009
:101170008130CC00E930CD008630CE005730CF0032
:101180008030D000EA30D1001330D2009930D30043
:101190007F30D4008330D5002630D6000730D7000A
:1011A00083308312031790001E3091009330920019
:1011B000733093007F3094004A309500E5309600FC
:1011C00072309700813098004B3099008B309A0034
:1011D00079309B0083309C008A309D000E309E0049
:1011E0001A309F008130A0000E30A100D830A2003C
:1011F000EF30A3008030A4004330A500C430A60027
:10120000E130A7008230A8002130A900C230AA0036
:10121000DD30AB0083160313D801D901DA01DB01FD
:10122000DC01DD01DE01FF30850008308600003082
:1012300087008312A0000730831688008A1183126A
:1012400035298A158A118B218A1583160814831271
:10125000EC010818EC0A831688148312ED01881833
:10126000ED0A831608158312EE010819EE0A6F08BD
:101270006C02031D432970086D02031D4329710888
:101280006E02031990290C300317D7008A1103133B
:101290003C228A156C0B5529ED08031D5529EE08D3
:1012A000031D55290130E7009029EC08031D602932
:1012B0006D0B6029EE08031D60290230E7009029BC
:1012C000EC08031D6B29ED08031D6B296E0B6B29C0
:1012D0000330E700902901300317D800D9008A11A4
:1012E000031328228A15333003178D0000308F0036
:1012F0008A11031376228A1501300317D8000230B1
:10130000D9008A11031328228A153A3003178D0059
:1013100000308F008A11031376228A150430E7000B
:101320006708043C03199B2967080317C8008A1142
:1013300003130C2C8A156C08EF006D08F0006E0882
:06134000F1002229630008
:02400E00713F00
:00000001FF
;PIC16F877A
;CRC=8893  CREATED="07-nov.-21 21:05"
